:020000040800F2
:1000000098BD00209D010008E11B00089F1B00080F
:10001000DF1B0008B1080008A92300080000000049
:10002000000000000000000000000000951E000815
:10003000ED08000800000000E31B0008971E000800
:10004000B7010008B7010008B7010008B7010008B0
:10005000B7010008B7010008B7010008B7010008A0
:10006000B7010008B7010008B7010008B701000890
:10007000B7010008B7010008B7010008B701000880
:10008000B7010008B7010008B7010008B701000870
:10009000B7010008B7010008B7010008B701000860
:1000A000B7010008B7010008B7010008B701000850
:1000B000B7010008B7010008B7010008B701000840
:1000C000B7010008B7010008B7010008B701000830
:1000D000B7010008B7010008B7010008B701000820
:1000E000B7010008B7010008B7010008B701000810
:1000F000B7010008B7010008B7010008B701000800
:10010000B7010008B7010008B7010008B7010008EF
:10011000B7010008B7010008B7010008B7010008DF
:10012000B7010008B7010008B7010008B7010008CF
:10013000B7010008B7010008B7010008B7010008BF
:10014000B7010008B7010008B7010008B7010008AF
:10015000B7010008B7010008B7010008B70100089F
:10016000B7010008B7010008B7010008B70100088F
:10017000B7010008B70100080000000000000000FF
:10018000B7010008B7010008DFF80CD000F0E4FA6E
:10019000004800477D77000898BD0020064880474A
:1001A00006480047FEE7FEE7FEE7FEE7FEE7FEE75C
:1001B000FEE7FEE7FEE7FEE70D1F000889010008E5
:1001C0002DE9F05F0546002092469B46884606468C
:1001D000814640241BE0284641464746224600F01F
:1001E000B0F853465A46C01A914110D311461846EA
:1001F000224600F019F82D1A67EB01084F462246F7
:100200000120002100F010F817EB00094E41201EDC
:10021000A4F10104DFDC484631462A46434600F09B
:1002200000B830BCBDE8C09F202A04DB203A00FAA9
:1002300002F1002070479140C2F1200320FA03F33D
:1002400019439040704740EA01039B0703D009E03F
:1002500008C9121F08C0042AFAD203E011F8013BB2
:1002600000F8013B521EF9D27047D2B201E000F80B
:10027000012B491EFBD270470022F6E710B513464A
:100280000A4604461946FFF7F0FF204610BD421CFF
:1002900010F8011B0029FBD1801A704730B50446C5
:1002A0000020034600E05B1C934203D2E05CCD5C7F
:1002B000401BF8D030BD30B505460020034600E0B5
:1002C0005B1C934205D2EC5CC85C201A01D1002C67
:1002D000F6D130BD30B4044696230800214604D040
:1002E000B62330BC002200F045B820460021F8E7D4
:1002F00000F0004230F000400AD0C10D01F56071FD
:10030000C0F3160042EA0151C2084007114370478A
:1003100000200146704730B50B46014600202022E0
:10032000012409E021FA02F59D4205D303FA02F502
:10033000491B04FA02F52844151EA2F10102F1DC62
:1003400030BD202A04DB203A21FA02F00021704758
:1003500021FA02F3D040C2F120029140084319462D
:1003600070470029A8BF7047401C490008BF20F013
:100370000100704710B4B0FA80FC00FA0CF050EAAB
:10038000010404BF10BC704749B1CCF1200421FA2C
:1003900004F411FA0CF118BF012121430843A3EB27
:1003A0000C01CB1D4FEA00614FEA102042BF002034
:1003B00010BC704700EBC35010440029A4BF10BC10
:1003C0007047401C490008BF20F0010010BC704776
:1003D0002DE9FE4F804681EA0300C00F0C460090D5
:1003E00021F0004123F00045B8EB0200A94105D2FD
:1003F0004046214690461C460B46024623F00040EC
:10040000104347D0270DC7F30A00C3F30A510290E7
:10041000401A019040286BDAC3F3130040F4801BAC
:100420000098924620B10023D2EB030A63EB0B0B3A
:1004300001985946C0F140025046FFF7F5FE0646C6
:100440000D4650465946019A00F098F910EB080005
:100450006141002487EA115284EAE7731A4340D0CD
:10046000009A62B3019A012A4FEA075215DC001B79
:1004700061EB02014FF0004202EA0752CDE900426F
:10048000001C41F5801132462B4600F098F903B06C
:1004900000F045B840462146F9E7001B61EB020138
:1004A000001C41F5801300185B412018A2F50017CD
:1004B00047EB030140EAD570B6196D4111E06D08B4
:1004C0004FEA360645EAC0754FEA0752001B61EB5A
:1004D0000201001C41F5801149084FEA3000001963
:1004E000514132462B4603B000F01CB800F058B919
:1004F0000098012240000023D0EB020263EBE0737E
:10050000009821464FEAE074B8EB000061EB04016B
:10051000E9E783F000435BE781F0004158E730BC36
:10052000BDE8C08F30BCBDE8C04FFFF7DFBF2DE98D
:10053000FE4F81EA030404F0004421F000410094DE
:100540004FF0000B23F0004350EA01045ED052EA62
:1005500003045BD0C3F30A54C1F30A552C44A4F23C
:10056000F3340194A0FB0254C1F3130141F4801150
:10057000C3F3130343F4801301FB024400FB034E57
:10058000840A970A44EA815447EA8357A4FB076820
:1005900002958D0A05FB07854FEA932C04FB0C544A
:1005A0002705029D4FEA065847EA1637B5EB0805BE
:1005B0006EEB070C870E920E47EA811742EA831210
:1005C000A7FB0201B6EB0B0164EB00042B0D43EA21
:1005D0000C335E1844EB1C50DA465146E7FB02012F
:1005E000C5F313044FEA0B3343EA14534FEA0432C2
:1005F000019C43EA0603A4F10C040294009CCDE99B
:1006000000B400F0DCF803B000F003B800200146AD
:10061000F9E730BCBDE8C08F2DE9F04D81EA030455
:1006200004F0004B21F0004514464FF0000A23F07F
:10063000004150EA050220D054EA01021DD0C5F362
:100640000A570246C5F31303C1F31300C1F30A5658
:1006500040F4801543F48013A7EB0608101BD64620
:1006600008F2FD3873EB050002D308F1010801E040
:1006700092185B41B8F1000F03DA00200146BDE893
:10068000F08D00204FF48011064684460EE0171BC3
:1006900073EB050705D3121B63EB050306434CEA16
:1006A000010C49084FEA300092185B4150EA0107FB
:1006B000EDD152EA030012D082EA040083EA050178
:1006C000084305D0101BAB4106D20122002306E0EF
:1006D00000224FF0004302E06FF0010253101AEBCA
:1006E00006004CEB085110EB0A0041EB0B01BDE892
:1006F000F04D00F055B8C1F30A52C1F3130140F2B6
:10070000FF3341F480119A4202DA0020014670471B
:1007100040F233439A42A2F2334202DC5242FFF7E4
:1007200010BEFFF781BD000030B5041E71F100045A
:1007300004DB4FF00044404264EB0101141E73F1EE
:10074000000405DB1C464FF00043524263EB0403F8
:10075000994208BF904230BD064C074D06E0E06864
:1007600040F0010394E8070098471034AC42F6D3F8
:10077000FFF70EFDCC300308EC300308202A06DB1F
:10078000CB17203A41FA02F043EAE07306E041FA5F
:1007900002F3D040C2F1200291400843194670474D
:1007A00010B5141E73F1000408DA401C41F1000179
:1007B00092185B411A4301D120F0010010BD2DE9D0
:1007C000F04D92469B4611B1B1FA81F202E0B0FAC7
:1007D00080F220329046FFF727FD04460F4640EA9C
:1007E0000A0041EA0B0153465A46084313D011460A
:1007F00053EA010019D0C8F140025046FFF7A1FDAD
:1008000005460E46504659464246FFF70DFD084341
:1008100005D0012004E020463946BDE8F08D0020D7
:10082000054346EAE0762C4337430A986305E40A19
:10083000A0EB08000022FD0A44EA47540A3002D522
:1008400000200146E9E7010510196941DDE9084585
:1008500000196941BDE8F04DA2E770B58C1810F899
:10086000015B15F0070301D110F8013B2A1106D1F5
:1008700010F8012B03E010F8016B01F8016B5B1E0F
:10088000F9D12B0705D40023521E0DD401F8013BEA
:10089000FAE710F8013BCB1A921C03E013F8015B56
:1008A00001F8015B521EF9D5A142D8D3002070BDDA
:1008B000FEE700000948016821F0010101600848D5
:1008C0000121816081680029FCD10649016000682E
:1008D0000549884200D0FEE770470000002000E094
:1008E00000300240C2A507F4CDB5E8B57047F0B5B9
:1008F000044600201E23012601E05B1E05D303F001
:100900001F0706FA07F50D42F7D072B1082A0AD080
:10091000102A05D0182A01D1072B06D30120F0BDDB
:10092000082BFBD201E0102BF8D223685961216813
:100930008B6823F0180313438B60F0BD10B50400DF
:1009400010D0607F20B900202077204600F030F8DA
:1009500002206077207938B1D4E902122046FFF7EF
:10096000C6FF48B1012010BD2168104848612068C9
:10097000816821F0180181606079A0B12069216847
:10098000086120688168626921F06001114381601B
:1009900020688168A26921F08001114381600120F3
:1009A0006077002010BD4FF0FF30E8E7B71DC104AD
:1009B00008B500680649884208D10648816C41F4B0
:1009C00080518164806C00F48050009008BD00006C
:1009D000003002400010024070B5044600F054F9A7
:1009E0000546601C02D004484068044400F04CF9FD
:1009F000401BA042FAD370BDC81600202DE9F04F6D
:100A0000DFF83492002309F1040A012403250AF1D6
:100A1000040B87B00F270BF1040E04E104FA03F670
:100A200032407CD0D1F804C0BCF1010F08D0BCF139
:100A3000020F05D0BCF1110F02D0BCF1120F29D169
:100A4000D0F808C0CDF800C04FEA430C05FA0CF806
:100A5000CDF80CC0DDF800C02CEA080CCDF800C0C1
:100A6000D1F80C80DDF80CC008FA0CF8DDF800C0F5
:100A700048EA0C08C0F80880D0F8048091F804C057
:100A800028EA0608CCF3001C0CFA03FC4CEA080C1C
:100A9000C0F804C0D1F804806FEA080C5FEA8C7CCF
:100AA00009D1D0F82CC02CEA060CC8F3C0069E4031
:100AB00046EA0C06C662D0F80CC04FEA430805FAB5
:100AC00008F62CEA060CCDF8148002968E6806FA19
:100AD00008F646EA0C06C6604E68022E01D0122EB9
:100AE00015D1DE0800EB86060396366A4FEA437C92
:100AF0004FEADC6807FA08FC26EA0C06D1F810C0B9
:100B00000CFA08FC4CEA060C039EC6F820C00668E6
:100B1000DDF808C026EA0C0691F804C000E081E088
:100B2000DDF814800CF0030C0CFA08FC4CEA060CFF
:100B3000C0F800C04E68F60074D5404ED6F860C0CC
:100B40004CF0010CC6F860C0366E23F0030C06F0C2
:100B5000010600963A4E66440296D6F808C09E07F3
:100B60004FEA167807FA08F62CEA060CB0F1904F17
:100B700004D0344EB04203D101261BE0002619E018
:100B8000314EB04201D1022614E0304EB04201D1C4
:100B900003260FE02E4EB04201D104260AE02D4E6E
:100BA000B04201D1052605E02B4EB04201D1062608
:100BB00000E0072606FA08F646EA0C06DDF808C04B
:100BC000CCF80860D9F80060CC46D1F80480964390
:100BD0005FEAC83800D51643CCF80060DAF8006048
:100BE000D446D1F8048096435FEA883800D516438E
:100BF000CCF80060DBF80060DC46D1F80480964356
:100C00005FEAC82800D51643CCF80060DEF8006023
:100C1000F446D1F8048096435FEA882800D516434D
:100C2000CCF800605B1C0A6832FA03F67FF4F6AE7B
:100C300007B000F013B800000004014000100240AB
:100C4000000001400004004800080048000C004873
:100C500000100048001400480018004830BCBDE8EF
:100C6000C08F000002480068C0F30B00704700000E
:100C7000002004E00048704700010B0101480068B3
:100C8000000C7047002004E00148806870470000B5
:100C9000C81600200248816842681144816070478C
:100CA000C816002010B50024032000F063F80020CF
:100CB00000F008F808B1012401E000F025F8204612
:100CC00010BD000070B50E4E05460024706898B146
:100CD0004FF47A71B1FBF0F00A490968B1FBF0F00A
:100CE00000F00EFE40B9102D06D200222946501EFB
:100CF00000F020F8356000E00124204670BD0000BF
:100D0000C8160020D4160020094808B5016E41F02D
:100D100001010166016E01F001010091816D41F058
:100D200080518165806D00F08050009008BD00000A
:100D300000100240F0B40E4B1B680C46C3F30223B4
:100D4000C3F10705042D00D90425191D072901D277
:100D5000002300E0DB1E012606FA05F1491E2140B2
:100D600099409E40761E16403143F0BC01F041BBD5
:100D70000CED00E0064900F0070208684FF6FF039B
:100D8000184040EA0220034A104308607047000000
:100D90000CED00E00000FA051649B0F5007F086888
:100DA000C0F3412009D0022805D0086820F4C060B3
:100DB00040F480600860002070470128FBD008687C
:100DC00020F4C06040F4007008600B4832220068D4
:100DD00050430A4AB0FBF2F0401C00E0401E4A6952
:100DE000520501D50028F9D148694005E3D5032013
:100DF0007047000000700040D416002040420F00F1
:100E00000248006800F4C0607047000000700040B5
:100E10002DE9F84F044600270088E54D3E460105C0
:100E200004F1200B1DD5606E78B1B0F5800F11D0A4
:100E3000B0F5000F04D0B0F5400F22D001270FE02D
:100E4000E86840F48030E8601BE00021201D00F0DD
:100E5000C9FE03E00021584600F05AFF070010D0F9
:100E60003E462088C00426D5A06EC0B1B0F1807F78
:100E70001AD0B0F1007F0DD0B0F1407F19D001271A
:100E800018E0D5F88800616E20F440000843C5F8EA
:100E90008800E6E7E86840F48030E86009E0002177
:100EA000201D00F09FFE03E00021584600F030FFB7
:100EB0000746F7B13E46206880033AD5A86D4FF04B
:100EC0000008C00009D4A86D40F08050A865A86D46
:100ED0004FF0010800F080500090DFF8D8A2DAF857
:100EE000001041F48071CAF80010FFF7CDFE814672
:100EF00010E0D5F88800A16E20F040700843C5F8D6
:100F00008800D8E7FFF7C0FEA0EB0900022801D94E
:100F1000032705E0DAF80000C005F3D5002F7CD0E8
:100F20004FEA0706B8F1000F03D0A86D20F08050FB
:100F3000A8652078C00707D0D5F88800A16B20F0FD
:100F400003000843C5F888002078800707D5D5F846
:100F50008800E16B20F00C000843C5F88800207879
:100F6000400707D5D5F88800216C20F030000843F1
:100F7000C5F888002078000707D5D5F88800616C8F
:100F800020F0C0000843C5F888002078C00607D5C7
:100F9000D5F88800A16C20F440700843C5F888009B
:100FA0002078800607D5D5F88800E16C20F44060F1
:100FB0000843C5F888002088800507D5D5F8880043
:100FC000E16D20F440200843C5F8880020884005E2
:100FD00007D5D5F88800216E20F440100843C5F8E5
:100FE00088002078400607D5D5F88800216D20F4C8
:100FF00040500843C5F888002078000607D5D5F88A
:101000008800616D20F440400843C5F888002088BE
:10101000C00509D5D5F8880000E01CE0A16D20F4DA
:1010200040300843C5F8880020884FF000678004EE
:101030004FF080684FD5D5F88800E16E20F0406011
:101040000843C5F88800E06EB8423CD1E86840F437
:101050008010E8603FE0D5F8900010F4407015D0A3
:10106000D4F88410814211D0D5F89000D5F89010B2
:1010700020F4407041F48031C5F89010D5F89010FC
:1010800021F48031C5F89010C5F89000C00710D049
:10109000FFF7FAFD074641F2883906E0FFF7F4FD55
:1010A000C11B494501D903263CE7D5F890008007CC
:1010B000F4D5D5F89000D4F8841020F4407008439B
:1010C000C5F890002EE7404505D10121201D00F014
:1010D00089FD00B106462068000317D5D5F88800C1
:1010E000216F20F040600843C5F88800206FB842A7
:1010F00004D1E86840F48010E86007E0404505D17D
:101100000121201D00F06EFD00B10646206840035D
:1011100017D5D5F88800616F20F040600843C5F806
:101120008800606FB84204D1E86840F48010E8603D
:1011300007E0404505D10121201D00F053FD00B11D
:101140000646208840041AD5D5F88800A16F20F003
:1011500040500843C5F88800A06FB0F1805F03D00D
:10116000B0F1005F05D00AE00221201D00F03AFD39
:1011700003E00221584600F0CBFD00B1064620886E
:10118000000407D5D5F88800E16F20F080400843BF
:10119000C5F888002068C00307D555F8880FD4F833
:1011A000801020F0004008432860304600F004B86A
:1011B000001002400070004018BCBDE8E08F000045
:1011C0002DE9F0470F46050058D0404E306800F03A
:1011D0000700B84209D2306820F007003843306079
:1011E000306800F00700B84248D12878384CC00772
:1011F0002CD06868032811D0022812D0216898B139
:10120000490500293ADAA16821F003010143A160F0
:10121000FFF73AFD804641F2883910E021688901E4
:10122000EFE721688903ECE78907EAE7FFF72CFD80
:10123000A0EB0801494502D90320BDE8F087A0686A
:10124000696800F00C00B0EB810FEFD128788007BF
:1012500005D5A068A96820F0F0000843A0603068B8
:1012600000F00700B8420BD9306820F0070038437F
:101270003060306800F00700B84201D00120DCE7A0
:101280002878400705D5A068E96820F4E0600843A5
:10129000A0602878000706D5A068296920F460506E
:1012A00040EAC100A06000F045F8A168094AC1F316
:1012B0000311515C01F01F01C8400749086007484D
:1012C0000068BDE8F047FFF7FDBC000000200240C9
:1012D00000100240F42E0308D4160020C816002087
:1012E0000148006870470000D416002005480649F0
:1012F00000688968054AC1F30221515C01F01F01B1
:10130000C8407047D416002000100240342F030854
:101310000548064900688968054AC1F3C221515C45
:1013200001F01F01C8407047D41600200010024091
:10133000342F030870B52549002318468A68CC6805
:1013400012F00C0204F00306214C4FEA640509D0A8
:101350000C2A05D0042A32D0082A00D1284670BDB4
:10136000012E10D10B681B0704D4D1F89430C3F3BD
:10137000032302E00B68C3F30313164E56F8233021
:10138000DAB10C2AEBD1C86800F00300022818D0AB
:10139000032818D01846CA68CB68C2F30212C3F3F8
:1013A00006234343521CB3FBF2F2C868C0F341600A
:1013B000401C4000B2FBF0F070BD184670BD2046E6
:1013C00070BD2046E7E72846E5E700000010024030
:1013D0000024F400042F03082DE9F84304006FD023
:1013E000FE4DA86800F00C06E86800F003072078BE
:1013F000C00664D576B10C2E01D1012F0AD0A069A8
:10140000002828687AD040F001002860FFF73CFCF3
:1014100080465DE02868800702D5A0690028DED0FC
:10142000216A2868000703D5286800F0F00004E06E
:10143000D5F89400F02202EA1010814216D908462D
:1014400000F0EAFC00283BD1286840F00800286042
:101450002868216A20F0F000084328606868E16984
:1014600020F47F4040EA0120686016E0286840F0E0
:10147000080028602868216A20F0F00008432860EE
:101480006868E16920F47F4040EA0120686026B97D
:10149000206A00F0C1FC0028D5D1FFF74BFFA968F6
:1014A000CF4AC1F30311515C01F01F01C840CD497F
:1014B0000860CD480068FFF705FC00287ED12EE0CB
:1014C000CAE000BFFFF7E0FBA0EB0800022876D8D7
:1014D00028688007F6D5286840F00800286028684A
:1014E000216A20F0F000084328606868E16920F470
:1014F0007F4040EA0120686011E0FFE720F0010032
:101500002860FFF7C1FB804606E000BFFFF7BCFB89
:10151000A0EB08000228DAD828688007F6D42078E3
:10152000C00740D0082E18D00C2E01D1032F14D0A4
:101530006068B0F5803F17D0B0F5A02F286817D0AD
:1015400020F480302860286820F4802028606068BB
:10155000E0B1FFF799FB804614E02868800322D5AC
:101560006068002878D01EE0286840F48030EDE7FD
:1015700040F480202860F7E7FFF786FBA0EB080027
:101580006428A4D828688003F6D50CE0FFF77CFB1C
:10159000804605E0FFF778FBA0EB0800642896D8AA
:1015A00028688003F6D4207880073BD5042E11D01C
:1015B0000C2E01D1022F0DD0E06801E092E1F1E0A4
:1015C000002828681ED040F480702860FFF75CFB7C
:1015D00007460CE0286840050CD5E0680028C1D01B
:1015E00008E000BFFFF750FBC01B022893D8286813
:1015F0004005F7D56868217C20F0F85040EA01608A
:1016000068600FE020F480702860FFF73DFB07461C
:1016100005E000BFFFF738FBC01B0228B1D82868DF
:101620004005F7D42078000729D560690028D5F84F
:10163000940012D040F00100C5F89400FFF724FB9D
:10164000074604E0FFF720FBC01B022899D8D5F815
:1016500094008007F6D512E000E120F00100C5F803
:101660009400FFF711FB074605E000BFFFF70CFBF6
:10167000C01B022885D8D5F894008007F6D42078BE
:10168000400766D5A86D0027C00008D4A86D40F0BB
:101690008050A865A86D012700F080500090534845
:1016A0000168C90512D40168814641F48071016066
:1016B000FFF7EAFA804605E0FFF7E6FAA0EB08003C
:1016C00002286FD8D9F80000C005F5D5A068012818
:1016D00016D00528D5F8900017D020F00100C5F8E5
:1016E0009000D5F8900020F0040000BFC5F89000ED
:1016F000A06841F28839C0B1FFF7C6FA80460FE012
:10170000D5F8900040F00100F0E740F00400C5F883
:101710009000F5E7FFF7B8FAA0EB0801494541D87A
:10172000D5F890008007F5D50EE0FFF7ADFA8046BA
:1017300006E000BFFFF7A8FAA0EB0801494531D841
:10174000D5F890008007F5D41FB1A86D20F0805027
:10175000A865A06A38B302280AD00C2E7ED028686B
:1017600020F080702860286810F0205F77D0AAE011
:10177000E868E26A00F0030191422BD1216B00F08E
:10178000700209011039914224D1626B00F4FE41CC
:10179000B1EB022F1ED1A26B00F40031072A03D057
:1017A000012202E09DE089E00022914212D1A18F46
:1017B00000F4C00249084905A1F50011914209D180
:1017C00094F8401000F0C06049084906A1F100718A
:1017D00081425CD00C2E41D0286809E00010024004
:1017E000F42E0308D4160020C81600200070004014
:1017F00040017ED42868C0007BD4286820F0807027
:101800002860FFF741FA064605E000BFFFF73CFA03
:10181000801B022865D828688001F7D4D4E90B0121
:101820006FF00F0202EB01110843A18F5204490827
:1018300002EB4151626B41EA0221084394F84010E7
:101840004FF07E42490802EB41610843A16B090950
:1018500040EA4140E968284A114001E049E02EE0B1
:101860000843E860286840F080702860E86840F02D
:101870008070E860FFF708FA044604E0FFF704FA16
:10188000001B02282DD828688001F7D52FE0286892
:1018900080012CD4286840F080702860E86840F00F
:1018A0008070E860FFF7F0F9044604E0FFF7ECF918
:1018B000001B022815D828688001F7D517E0E868D2
:1018C00020F00300E860E8680C490840E860FFF792
:1018D000DBF9044608E000BFFFF7D6F9001B022839
:1018E00002D90320BDE8F88328688001F4D40020E1
:1018F000F8E70120F6E700008C809DF9FFFFEEFE7F
:1019000010B5401EB0F1807F01D3012010BD4FF013
:10191000E02460610F21601700F06BFD0020A061E2
:1019200007202061002010BD10B5040002D0606FB8
:1019300010B107E0012010BD002084F8700020469F
:1019400000F026F8242060672068016821F001017A
:101950000160204600F08CFB0128ECD0606A10B1D9
:10196000204600F0F5FA2068416821F4904141607A
:101970002068816821F02A0181602068016841F0B7
:10198000010101602046BDE8104000F045BB0000A9
:1019900010B586B0044614216846FEF76DFC124966
:1019A000206888421ED11148016E41F480410166D1
:1019B000016E01F480410591C16C41F00201C164E6
:1019C000C06C694600F002000590C0200090022023
:1019D0000190002002900320039007200490044807
:1019E000FFF70CF806B010BD0038014000100240AF
:1019F000000400482DE9F84F0446806F9A461646C9
:101A00000D4620286BD1EDB1E6B194F870000128A5
:101A100065D0012084F870004FF00008C4F87C8085
:101A20002220A067FFF730F9A4F858608146A4F897
:101A30005A60A0684FF48053FF21984208D1226970
:101A40001AB11CE0012000F04CB840F2FF1116E082
:101A50007F2290B1B0F1805F14D0A4F85C8000BF09
:101A6000B4F85C70984201D1206990B12E460025EF
:101A700084F8708007F0FF0825E0266936B9A4F8DD
:101A80005C10EDE7216909B13F21F8E7A4F85C207B
:101A9000E6E70026ECE74B46002220212046CDF861
:101AA00000A000F02FFC08B10320CCE72068808C58
:101AB0008EB100EA080006F8010B00BFB4F85A0026
:101AC000401EA4F85A00B4F85A000028E3D12020A0
:101AD000A0670020B7E7384025F8020BEEE70220A8
:101AE000B1E718BCBDE8E08F2DE9F8430446406F2C
:101AF0001F4616460D4620284FD1CDB1C6B194F8E9
:101B00007000012849D0012084F870004FF00008CF
:101B1000C4F87C8021206067FFF7B6F8A4F8506015
:101B20008146A4F85260A068B0F5805F03D004E05D
:101B30000120BDE8F883206928B12E465FF000053A
:101B400084F8708010E00026FAE78021204600F03B
:101B5000D9FBB8B9C6B116F8010B21680885B4F8ED
:101B60005200401EA4F85200B4F852004B464FF009
:101B7000000200970028E8D14FF04001204600F015
:101B8000C1FB30B10320D4E735F8020BC0F30800E5
:101B9000E3E7202060670020CBE70220C9E7FEE7EB
:101BA0000948084901604FF4E1314160002181603A
:101BB0000C22C160C0E904128161C161016241620D
:101BC000FFF7B2BE00380140C418002010B5FFF77F
:101BD000E7FFBDE8104003F01FB803F039B8FEE797
:101BE000704770472DE9F041444C05468846E0684F
:101BF0000026810728680DD0E16801F003018142C9
:101C000016D1A8B1E0686968C0F30210401C884290
:101C10000ED120E0012804D0022805D0032807D1E6
:101C200008E02168890701E021684905002907DBF0
:101C300001265FE02168890302D421684903F5E7A2
:101C4000E1686A686FF00F0321F0730103EB021281
:101C500011430143E160206820F080602060FFF7BD
:101C600013F8074605E000BFFFF70EF8C01B022877
:101C700037D820680001F7D4B8F1000F18D0B8F1B8
:101C8000010F1ED0287D4FF07E41400801EB4060DF
:101C9000A96840EA01202169194A114008432061DE
:101CA000206840F080602060FEF7EEFF07461AE0F3
:101CB000A868E9680002090940EA41402169114A1F
:101CC000EBE7288A1049400801EB4050A96840EA38
:101CD000012021690D4AE0E7FEF7D6FFC01B02286C
:101CE00001D9032606E020680001F5D52069A9691D
:101CF000084320613046BDE8F0810000001002403A
:101D0000FF80FFF9FF80FDFF0000E0FFFF809FFFE5
:101D10002DE9F0413D4C06468846E06800258107E4
:101D200030680DD0E16801F00301814216D1A8B1FD
:101D3000E0687168C0F30210401C88420ED120E0B8
:101D4000012804D0022805D0032807D108E0216823
:101D5000890701E021684905002907DB012551E0D9
:101D60002168890302D421684903F5E7E1687268B4
:101D70006FF00F0321F0730103EB021211430143D3
:101D8000E160206820F080502060FEF77DFF07466C
:101D900005E000BFFEF778FFC01B022829D82068A5
:101DA0008000F7D4B8F1000F15D0307C4FF07E41A1
:101DB000400801EB4060B16840EA01206169144AC3
:101DC000114008436061206840F080502060FEF7B9
:101DD0005BFF07460FE0B068F1680002090940EABE
:101DE000414061690B4AEBE7FEF74EFFC01B02283A
:101DF00001D9032506E020688000F5D56069716986
:101E0000084360612846BDE8F081000000100240F0
:101E1000FF80FFF9FF80FDFFF8B51C4D064600244A
:101E2000A86DC00002D5FEF7EBFF0DE0A86D40F0F5
:101E30008050A865A86D00F080500090FEF7E0FF8C
:101E4000A96D21F08051A965B0F5007F04D0802EE6
:101E500007D94FF003040AE0802E08D9A02E01D83C
:101E600004E001D1022402E0702E00D101240848D0
:101E7000016821F0070121430160006800F00700BC
:101E8000A04201D00120F8BD0020F8BD00100240A2
:101E9000002002407047FEF7FDBE30B5B9B04421C6
:101EA00022A8FEF7E9F9142133A8FEF7E5F9882105
:101EB0006846FEF7E1F910200125229000242895BC
:101EC0006020CDE9294002202821CDE92C05CDE96B
:101ED0002E510721CDE93010329022A8FFF77CFA6D
:101EE0000F2033900320CDE934043694042133A825
:101EF0003794FFF765F9684600950E94FEF788FF62
:101F00006802FEF749FF39B030BD00000D48016896
:101F100041F4700101600C48016841F00101016069
:101F2000002181600268094B1A4002608214C2607D
:101F3000026822F48022026081610249C003803974
:101F40000860704788ED00E000100240FFFFF6EAED
:101F500090F82410C90706D001684A68836A22F401
:101F600000321A434A6090F82410890706D50168A8
:101F70004A68C36A22F480321A434A6090F82410F7
:101F8000490706D501684A68036B22F480221A4388
:101F90004A6090F82410090706D501684A68436B27
:101FA00022F400421A434A6090F82410C90606D56C
:101FB00001688A68836B22F480521A438A6090F821
:101FC0002410890606D501688A68C36B22F4005282
:101FD0001A438A6090F82410490611D501684A68AE
:101FE000036C22F480121A434A60016CB1F5801F21
:101FF00006D101684A68436C22F4C0021A434A6061
:1020000090F82410090606D501684A68806C22F40D
:10201000002202434A607047F8B500260446C667AE
:10202000FEF732FE0546206800686FF07E47000725
:1020300008D52B4600224FF400112046009700F0EF
:1020400061F960B92068006840070AD52B46002274
:102050004FF480012046009700F054F908B10320A6
:10206000F8BD20206067A06784F870600020F8BD8C
:102070002DE9F0410546016880682B69EC69184339
:102080006B69002723431843924A0B68924C234004
:1020900003430B6028684168EB6821F44051194301
:1020A00041602968A869914201D02B6A18438B6866
:1020B00023F4306303438B60884B29688848994236
:1020C0000DD1D0F8880010F0030006D0012868D0A8
:1020D000022864D0032851D165E001244FE0814BF0
:1020E00099420BD1D0F8880010F00C0055D004288C
:1020F00057D0082853D00C2840D154E07A4B99424D
:102100000BD1D0F8880010F0300046D0102848D00D
:10211000202844D0302831D145E0744B99420BD16E
:10212000D0F8880010F0C00037D0402839D080287F
:1021300035D0C02822D136E06D4B99420ED1D0F86F
:10214000880010F4407028D0B0F5807F29D0B0F519
:10215000007F24D0B0F5407F10D124E091420DD112
:10216000D0F8880010F4406017D0B0F5806F18D018
:10217000B0F5006F13D0B0F5406F14D010245D4B54
:1021800000264FF40040914245D174B1022C0FD08B
:10219000042C0FD0082C18D10FE00024EFE7022404
:1021A000EDE70424EBE70824E9E7FFF79FF803E0F5
:1021B000184602E0FFF7BEF8A8B36A6802EB4201D6
:1021C000814202D8B0EB023F01D901276FE0DFF86E
:1021D00028815CB1022C0CD0042C13D0082CF4D133
:1021E00050082105401846F1000105E0FFF77EF890
:1021F0000AE050084149F5E70023FDF7E1FFA0F5AB
:10220000407150E0FFF796F86A68010E030250082B
:1022100018187141F0E7E9694FF6EF7881422FD144
:10222000092CD2D200E042E0DFE804F006092005E4
:10223000230505052600C8E7FFF758F801E0FFF77A
:1022400067F84100D5F8040001EB5001B1FBF0F054
:1022500080B2A0F110014145B7D84FF6F0710140AE
:10226000C0F3420001432868C16020E02449686847
:10227000EAE7FFF75FF8E4E74FF480316868E3E7E7
:10228000092CA2D2DFE804F0060918051E05050591
:1022900020009AE7FFF72AF816E0FFF739F813E075
:1022A00080B2A0F1100141458FD82968C8602E6620
:1022B00038466E66BDE8F081686803EB5001B1FBFB
:1022C000F0F0EDE7FFF736F8696800EB5100B0FB7E
:1022D000F1F0E5E700800040F369FFEF00380140CE
:1022E000001002400044004000480040004C004004
:1022F000005000400024F400FFFC0F00000024F414
:102300000048E8012DE9F0479A4617460E46044674
:102310004FF000094FF02008089D39E0681C37D0C5
:10232000FEF7B2FCA0EB0A00A84222D80DB3206849
:10233000016849072CD5C069C043000528D421682D
:102340004FF4006008622068016821F4D0710160D8
:102350002068816821F001018160C4F87480C4F8AC
:102360007880C4F87C8000BF84F870900320BDE8BA
:10237000F0872068016821F4D071016020688168CD
:1023800021F001018160C4F87480C4F87880EBE723
:102390002068C06936EA000004D00020B842BDD0F1
:1023A0000020E4E70120F9E7FEE700000FB4054B49
:1023B00010B503A9044A029801F076F810BC5DF844
:1023C00014FB0000B1740008E01600204100080270
:1023D00018BF04200A0E18BF40F001004FF07F42E2
:1023E00032EA010108BF40F00200012808BF0520C1
:1023F00070470907090E002804DB00F1E02080F88F
:102400000014704700F00F0000F1E02080F8141D68
:102410007047000030B528B1144C031F002021681C
:102420000A4605E0084630BD9A4203D81046526875
:10243000002AF9D1002800D041680BD00468A3EB32
:102440000005A54204D11B681C440346046002E059
:10245000436000E023603AB11C68D51AA54203D15D
:1024600015682C441C6052685A6030BDE416002088
:1024700010B510EE104A4FF019406849002200EBE9
:1024800044002DED028B884257D8DFED650A14F029
:10249000004F60EE200A14BFBEEE001AB6EE001A1E
:1024A00071EE200AFDEEE00A10EE900A00EE900AAE
:1024B000F8EEE00A9FED5B1A00EEC10A9FED5A1A92
:1024C00000EEC10ADFED590A9FED591A00EE201AFD
:1024D000DFED580A40EE010A9FED571A574B00F006
:1024E000030100EE201A21EE000A7B4403EB810376
:1024F000D3ED000A524B7B4403EB810393ED001AAA
:10250000504B41EE000A7B4403EB8101801091EDBA
:10251000000A70EE800AEABB00EE100AB8EEC01A9C
:10252000DFED491A9FED490ABDEC028B01EE210A4D
:10253000BCEEC00A20EE200A10BD4FF0FF40A043C1
:102540001BD04FF0CE40B0EB440F82BFB7EE000A75
:10255000BDEC028B10BD3E48B0EB440F28BF0122FA
:1025600093D2022000F0C4F814F0004F15D0BDEC57
:10257000028BBDE8104000F0A3B814F5000F02BFB5
:102580009FED340ABDEC028B10BDBDEC028BBDE8A3
:10259000104000E007E000F087B8BDEC028BBDE81A
:1025A000104000F085B800EBD07359104FF07E5208
:1025B00002EBC15100EE101AA0EB630002EBC05019
:1025C00060EE200A00EE100A20EE208A18EE100AB3
:1025D00088B118EE100AB0F1FF4F15D018EE100AAE
:1025E000FFF7F4FE042808BF00F06AF8B0EE480ACE
:1025F000BDEC028B10BD022000F07AF8BDEC028B1E
:10260000BDE8104000F05CB8022000F071F8BDECAD
:10261000028BBDE8104000F04BB800000000501ED7
:102620003BAAB8400070313EF4FD053712BB2A3D8D
:1026300012BB2A3EFFFFFF3EFFFF7F3F7E0A0300E3
:10264000820A0300520A03000000004B00007E4E85
:102650000000A085000000002DE9F04782460F4CE5
:1026600010480D4E0E4F001B4FF0000820F00705DC
:102670004FF0010900221146504604F049FF00289E
:1026800002D1306810B10020BDE8F0873C60C4E999
:102690000058C6F80090EDE7E81600209C95002051
:1026A000E416002098B5002030EE000A70470000C4
:1026B0009FED020A20EE000A704700000000007043
:1026C0009FED020A20EE000A704700000000001093
:1026D00002E008C8121F08C1002AFAD170477047EB
:1026E000002001E001C1121F002AFBD17047000049
:1026F0000149086070470000EC1600202DE9F05FEA
:1027000000278A4604463E46B94637E0A06806EBF5
:1027100046024168806801EBC20500EBC60BD8F8A1
:102720001800006802F05EFB28600120A880D8F83D
:102730000C008089E880D8F80C0000892881D8F83E
:102740000C004068E860D8F81800806828615FEAEB
:102750000B0009D0C0F80090D8F80010416029B1F2
:10276000498819B1012102E0484603E000210160D7
:1027700001B900207F1CBFB2761C68610CB12088B3
:1027800000E00020B04206D9606820B150F8260071
:102790005FEA0008BAD11FB1A0684068CAF800001B
:1027A000384600F000B830BCBDE8C09F00688143E7
:1027B00001D0002070470120704700002DE9F04F44
:1027C00007462DED028B95B080688468217AC94355
:1027D00041F3C01101F1010B79690A880AB14E6811
:1027E00000E00026012A02D94D680C3500E00025E2
:1027F000C18A0391B0F8149000210191006DB84294
:1028000007D100206061E06918B94946204600F010
:10281000EDFA206A6269436902EB420103EBC10AE7
:10282000C1691291006A0490606AC2EBC20100EBB8
:10283000C1080398401CAAF80400AAF80690E169B0
:10284000494503D108F12C0003F02BFDB9686068FD
:10285000BBF1000F8860D8F8040040F00100386137
:1028600031D0002021E080694FF08041FFF79EFFCA
:10287000C8B90998806903C802F094FA0246019821
:10288000DAF8101000EB4003102000EBC3000958E9
:10289000039800FB0210099989698968FDF7D3FC48
:1028A0000198401C019009F1010081460EB1308869
:1028B00000E00020484506D9706820B150F8290092
:1028C00009900028CFD19FED988AE06AF0B31822D2
:1028D000514609A8FDF7B7FC12980D9000200E9004
:1028E000ADF8320001901CE080694FF08041FFF7A5
:1028F0005DFFA0B907980D99019A8069012380684E
:102900000090019800EB400001EBC000049901EB3E
:10291000C201079A00F08BF90198401C019009F15F
:10292000010081460EB1308800E00020484506D9FC
:10293000706820B150F8290007900028D4D198ED94
:102940000D0AB8EE400A20EE080A00E006E08DED20
:102950000B0AD4E90B30002209A99847388802F005
:1029600043FF002808F12C00064605D003F0A0FC28
:1029700039693846884701E003F09AFC304603F095
:10298000A1FCBBF1000F30D04FF000094E461FE014
:102990004FF08041DBF81800FFF708FFB8B9DBF80B
:1029A000180003C802F0FEF9024609EB49031020A3
:1029B000DAF8141000EBC3000958039800FB02106A
:1029C000DBF818108968FDF73EFC09F10109761C57
:1029D0000DB1288800E00020B04206D9686820B117
:1029E00050F826005FEA000BD2D1E06AF0B318225B
:1029F000514608A8FDF727FC0020ADF82C000C90EC
:102A000012984FF000094E460D9019E04FF08041AA
:102A1000DAF81800FFF7CAFE88B9DAF818000D993D
:102A200001238068009009EB490001EBC000049984
:102A3000524601EBC90100F0FAF809F10109761CD0
:102A40000DB1288800E00020B04206D9686820B1A6
:102A500050F826005FEA000AD8D198ED0D0AB8EECA
:102A6000400A20EE080A8DED0A0A00E004E0D4E9ED
:102A70000B30012208A99847B8688460D8F808008C
:102A800040F001003861F868B84200D0F0BBE1685E
:102A9000491CE160E069401EE0613CD1206A227A75
:102AA0009FED220A8368D243C91A816042F3C012A3
:102AB000002180ED040A521C2AE000BF636AC1EBCA
:102AC000C10503EBC503082593ED0D0A01EB410396
:102AD0004669B8EE400A05EBC305354420EE080A06
:102AE00085ED000AD0ED040A456930EE200A80ED3C
:102AF000040A4AB9142707EBC3070026EE51102534
:102B0000476905EBC303FE50491C00E003E089B2AE
:102B1000A3698B42D2D86069401C606115B0BDECDE
:102B2000028B00F005B800006F12833A000000002D
:102B300030BCBDE8C08F00002DE9F84F4FF0000A0F
:102B4000856838495746C5F834A0C5F838A0066DE1
:102B5000D146D04641F0010B002E55D0696ACAEB30
:102B6000CA0011EBC0040AF1010AC4F808B00DD084
:102B700071682160306940F001014BF00100616033
:102B800030617069018819B1406802E0002015E0E9
:102B9000002004F10C0100F0CCF90090706901886C
:102BA000012902D940680C3000E0002004F11C012A
:102BB00000F0BFF90099814200D90846B84200D818
:102BC0003846C4F81090E168C4F82080894407466C
:102BD000E169686BA061A86BA0628844686B616959
:102BE00008446863A86B616A0844A863308802F0EF
:102BF00015FE014604F12C0003F038FBF068B042EA
:102C000002D008B10646A9E7EF63686BC01C20F04C
:102C100003006863A86BC01C20F00300A86300F0E9
:102C200003B80000BD27000818BCBDE8E08F2DE9FF
:102C3000F041054690691F4616460C46DDF818809F
:102C4000006802F0CFF82860AF80F0688089E880E3
:102C5000F06800892881F0684068C5E90308002011
:102C60005CB120603068606018B1408808B1012014
:102C700000E00020206000B120466861BDE8F081DE
:102C800010B5826A1AB1006B9047012010BD002078
:102C900010BD00002DE9F04F4B69D0E907A81C8852
:102CA0008FB00CB15F6800E00027012C02D95E688C
:102CB0000C3600E00026037A02EB4205D8F81440F7
:102CC000406A04EBC504C2EBC20200EBC2050888EF
:102CD0002080DB43488843F3C01360809FED400AA7
:102CE0005B1C84ED020AA88980B2A081A98BE181D6
:102CF00018D0D8F824102A6900EB400001EB4211EB
:102D00002161D8F828202B6A01EBC00002EB4312A6
:102D10006261D8F82C30D5F818C001900AFB0C3B42
:102D200000201DE00020606120610FB000F05AB863
:102D3000CDF800B0216909EB490001EBC000019911
:102D40001FFA8AF301EBC901069AFFF770FF069894
:102D5000806903C802F026F80AFB00BB09F10100F4
:102D600081460FB1398800E00021494506D97868CD
:102D700020B150F8290006900028D9D1D8F8301099
:102D8000AA6A60690AFB0217E189002501EB41018B
:102D900000EBC10814E00097606905EB450100EB0A
:102DA000C1001FFA8AF308EBC5014A46FFF73FFF4F
:102DB000D9F8180003C801F0F5FF0AFB00776D1C75
:102DC0000EB1308800E00020A842AED9706800281B
:102DD000ABD050F825005FEA0009DCD1A5E7000080
:102DE0000000000030BCBDE8C08F00002DE9FC5F92
:102DF0000546007A8A46C04340F3C010002200F125
:102E0000010913461046AC690BE000BF696AC0EBCC
:102E1000C00601EBC601401CCE68C96932440B44B0
:102E200080B28442F2D850010090580101906A6B40
:102E30000098AB6B0AFB0202019804EB44010AFB09
:102E400003004FEAC108E96BD21C4B0108F13801BD
:102E50001944C91CC01C21F0030722F0030B20F009
:102E60000300B9F1000F03D007EB0B010E1800E0CF
:102E70003E462C6A4CB121462846FFF701FF606BA5
:102E8000B04208D2204603F0B4F9304603F0A6F968
:102E9000041E44D0666304F13800A06104EB08000E
:102EA0003830E061E96B01EB410100EBC1002062C9
:102EB0000020B9F1000F0BD0E21902EB0B01C4E9BD
:102EC0000921009B1A44E262019A1144216303E044
:102ED000A06260622063E062C5E907A4114B296922
:102EE00000261A682260521C1A606060E868A060C0
:102EF000A8699FED0D0AE06084ED040AA069606195
:102F00000C6D5CB13246761C21462846FFF7C2FEA6
:102F1000E068A04202D008B10446F3E7012000F0C7
:102F200005B80000D8160020000000003CBCBDE839
:102F3000C09F70B50C46050006D02CB10020206063
:102F4000A0600646E06015E0002070BD0DD08069ED
:102F500058B10268510001D5002003E041681046D5
:102F600001F020FFA1680844A0602068401C761C86
:102F700020600DB1288800E00020B04205D96868C3
:102F800018B150F826000028E0D1206870BD00007C
:102F90002DE9FF5F82B00021DDE90430020DDDF88C
:102FA00040B0034318D044F61050A2F2FF3242431F
:102FB0001514119801281FD0A5EB0B00401C5FEAE7
:102FC000000A4FF000064E4FDFF83891B0465046E9
:102FD00015D5CAF1000413E0119801244AA3012871
:102FE00001D16FEA0B010298119AC0E90031C0E9E2
:102FF000024206B000F08EB8CBF10000DFE70446D5
:103000000021404A491842EB0450CDE9001012E07B
:10301000E00707D032463B4640464946FDF787FA6F
:103020008046894632463B4610461946FDF77FFAF0
:1030300006460F466410002CEAD1DDE90401DDE903
:103040000023BAF1000F06DAFDF771FA42464B464B
:10305000FDF76DFA05E0FDF7DFFA42464B46FDF756
:10306000DBFA04460E460022284BFDF75DFB03D831
:103070004FF0FF30014607E00022254B2046314645
:10308000FDF7A6F9FDF737FB102409E0002C0ADB59
:103090000A220023FDF794F8039B30321A55641E70
:1030A00050EA0102F2D1641C039AC4F111031444E2
:1030B000119A012A03D0012208430DD10AE00843E6
:1030C00004D000204FF0110B119072E7A3EB0B0519
:1030D0006D1E0DE05B4504DD4FF0000205F10105BA
:1030E00004E003DA4FF00002A5F10105002AECD05C
:1030F00002981199C0E90231C0E9004579E7000062
:10310000000014400000F03F300000000000F043D9
:103110000000E03F30BCBDE8C09F024600683C387C
:1031200000F13C03934204D0038F8B4202D0C06B6A
:10313000F5E70020704770B515460C46086802F0A8
:1031400079FD50B1D4E90F014160D4E90F01086065
:10315000204603F04EF8012070BD45B1D4E90F01BF
:103160004160D4E90F010860204603F042F80020D6
:1031700070BD2DE9FE4F92460F46040004D0B4F80E
:10318000480020B1E56C03E0002000F0F9B800250C
:103190000020E082A082207BC043800702D0302242
:1031A0001121DDE0DFB3D5B32888C0B3B7F80490B0
:1031B000002659E0A868006800EB0610019055D081
:1031C00068B306EB4600029007EBC000009003894D
:1031D000DBF81820C1889E46C0684B43D2F804C073
:1031E0004343634519D8DBF80C30D3F80C8088458D
:1031F00013D1D3F80880F0450FD1596881420CD122
:103200006146106801F0CEFDDBF80C10DBF81420ED
:10321000C968D2685143884204D2182200E025E0F0
:1032200012219DE0DBF81800006801F0DBFD20F0C2
:103230007E41029857F8300020F07E40814201D054
:103240001922EBE70098006980B10098808878B176
:103250004946484500D208468146DDE900105A46F5
:1032600000F091F8761C2DB1288804E01722D5E7EC
:103270002122D3E70020B04206D9686820B150F877
:1032800026B0BBF1000F95D1BAF1000F0AD0B4F807
:103290004800012808D9E56C0C3505D0288818B1FC
:1032A000002759E0012070E7182258E0A86800685C
:1032B00000EB07183BD0B8F1000F38D007EB470000
:1032C0000AEBC00101900A89D6F818C0C8888B465D
:1032D0009646CB684243DCF804105A438A42E3D84E
:1032E000F2680092D2688242DED10098826872450C
:1032F000DAD1009840689842D6D1DCF8000001F09D
:1033000051FDF1687269C968D26851438842CBD3D4
:10331000B069006801F066FD20F07E4201985AF81D
:10332000300020F07E40824203D0192217E017229D
:1033300015E0DBF810000028F9D0BBF8040068B1F4
:103340004946484500D208468146594632464046DD
:1033500000F019F87F1C3DB1288806E021221321D6
:10336000204602F039FE0FE70020B84205D9686810
:1033700018B150F82760002E98D1A4F8149091E766
:103380001EBCBDE8E08F30B5D368DC685369DB68EC
:103390005C4384608B886343C3600C694460096943
:1033A0001944016091690B689B0007D4D1E902358B
:1033B0005B1B23448B6091694068C86030BD70B569
:1033C0000546002621E0A9688369096801EB061417
:1033D0001968890005D5D4E901129868FCF733FF14
:1033E00008E0D3E90212891A626811449960806981
:1033F0006168C160D4E901010844606021688842C5
:1034000001D3E068081A761C60600DB1288800E0DE
:103410000020B04206D96868002803D050F8260082
:103420000028D0D170BD2DE9F041054600262BE0E3
:10343000A968096801EB061481690A6892000FD532
:10344000A26889686068FCF7FEFED4E901100144B7
:1034500061602068814201D3E168411A616012E035
:10346000D4E90112114461602268914201D3E168FC
:10347000511A61608269D2E90237DB1B19449160FD
:1034800080696168C160761C0DB1288800E0002069
:10349000B04206D96868002803D050F826000028FA
:1034A000C6D1BDE8F08100002DE9FF4F95B09B46E5
:1034B0008946064600250FE2252877D100242746B5
:1034C000F84A0121059400E0044316F8013F203B2F
:1034D00001FA03F01042F7D130782A2811D06FF0AA
:1034E0002F033078A0F13002092A16D8059A44F04B
:1034F000020402EB820203EB42021044761C0590A8
:10350000EFE759F8042B0592002A03DA504244F4FD
:103510000054059044F00204761C30782E2816D111
:1035200016F8010F44F004042A280DD06FF02F0282
:103530003078A0F13003092B09D807EB870302EBA1
:103540004303C718761CF3E759F8047B761C3078E0
:103550006C280FD006DC4C2817D068280DD06A28BC
:1035600014D104E0742810D07A280FD10DE044F46F
:1035700000140AE044F4801401E044F4401472782A
:10358000824202D104F58014761C761C30786628BD
:103590000BD013DC582877D009DC002875D04528DB
:1035A000F6D04628F4D047281AD19DE118E06328C8
:1035B00035D0642879D0652812D195E1702873D070
:1035C00008DC6728F1D069286FD06E280DD06F28ED
:1035D00006D1B5E073282CD0752875D0782874D022
:1035E0005A46179990476D1C75E1C4F302500228A2
:1035F00009D003280DD0D9F8001004280DD00D6093
:1036000009F1040967E1D9F80010EA17C1E900528D
:10361000F6E7D9F800100D80F2E70D70F0E719F821
:10362000041B8DF8001000208DF80100EA460120EF
:1036300003E059F804AB4FF0FF3061074FF0000191
:1036400002D40DE008F101018846B9420FDA804545
:10365000F8DB1AF808100029F4D108E008F101019C
:1036600088468142FADB1AF808100029F6D105983D
:103670005B46A0EB080721463846179A00F097FAF8
:10368000284400EB080507E04DE029E10DE01AF8B9
:10369000010B5A4617999047B8F10108F7D25B46DB
:1036A00021463846179A13E142E00A220092C4F3F9
:1036B00002524FF0000A022A08D059F804CB032A1C
:1036C0004FEAEC710AD00DE029E02AE009F1070188
:1036D00021F00702F2E802C1914609E00FFA8CFCE2
:1036E0004FEAEC71042A03D14FFA8CFC4FEAEC71DB
:1036F000002907DA0A460021DCF1000C61EB020127
:103700002D2202E0220504D52B228DF8042001226F
:1037100003E0E20701D02022F7E7904659E00A21B2
:1037200002E010220DE010214FF0000A00910BE0A2
:1037300010224FF0000A44F004040827009203E02E
:1037400008224FF0000A0092C4F30252022A05D068
:1037500059F804CB0021032A08D009E009F1070138
:1037600021F00702F2E802C1914605E01FFA8CFC45
:10377000042A01D10CF0FF0C4FF00008220728D5D5
:10378000702806D0009B83F0100353EA0A0305D08B
:103790000EE040228DF80420012208E05CEA0102DC
:1037A00006D030228DF804208DF8050002229046C4
:1037B000009B83F0080353EA0A030AD15CEA010282
:1037C00001D1620705D530228DF804204FF00108A1
:1037D0007F1E582804D034A003900EA802900DE05C
:1037E00036A0F9E753466046009AFCF7E9FC8446A8
:1037F0000398825C0298401E029002705CEA01000D
:10380000F0D1029806A9081A00F1200A600702D533
:1038100024F4803400E00127574502DDA7EB0A00BD
:1038200000E0002000EB0A01009005984144401A96
:103830000590E00306D45B462146179A059800F0F0
:10384000B6F90544002706E001A85A46C05D17995D
:1038500090476D1C7F1C4745F6DBE0030CD55B46AB
:103860002146179A059800F0A2F9054404E030209B
:103870005A46179990476D1C0099481E00900029E0
:10388000F5DC08E0029802995A460078491C02913A
:10389000179990476D1CBAF10001AAF1010AF1DCF9
:1038A00065E1000009280100303132333435363704
:1038B000383961626364656600000000303132337C
:1038C000343536373839414243444546000000001C
:1038D00000F05BF90544761C307800287FF4ECADED
:1038E00019B0284600F04EB9620700D4062709F146
:1038F000070222F0070CFCE80223E14603F000482F
:103900005FEA080C02D00FF2702C0DE05FEA045C55
:1039100002D50FF2682C07E05FEAC47C02D00FF2F8
:10392000602C01E0AFF2700C4FF0FF3823F0004341
:10393000CDF850C065280CD006DC452809D04628B3
:103940001DD047283DD13DE0662818D067287ED19C
:1039500038E00021112F01DB112000E0781CCDE9B7
:10396000000106A90EA8FFF713FBDDE90F010E9A6F
:1039700003910021009207F1010A04914DE04FF0FC
:1039800000400097CDE9011006A90EA8FFF700FB43
:10399000DDE90F0203920E9B11990022DDF80CA0C5
:1039A0000093049211B9791C00EB010AB7EB0A00ED
:1039B00004D4C0F1FF3007F1010A0490AAEB07001C
:1039C000019044E0012F00DA01270021112F01DDD1
:1039D000112000E03846CDE9000106A90EA8FFF746
:1039E000D7FADDE90F010E9A0391002104910092AC
:1039F000BA4621070CD40399514500DA8A46BAF138
:103A0000010F05DD009AAAF10101515C302908D0AF
:103A1000B84202DA10F1040F06DA0121CDE90110F3
:103A200015E0AAF10101E9E7002805DC0499014449
:103A30000491AAEB000102E0411C514500DD8A46D9
:103A40000499401A401C01904FF00040029020075A
:103A500004D40198504501DBCDF8048000208DF896
:103A60004F0002980DF14F07B0F1004F25D02B20E9
:103A70000E9002984FF0020800280CDA40420290A3
:103A80002D200E9007E00A210298FCF744FC30310B
:103A9000029007F8011DB8F10001A8F10108F2DC5D
:103AA00002980028EFD1791E0E980870307800F047
:103AB000200040F0450007F8020D12A8C01B00F1DD
:103AC00007081498007800B1012000EB0A01019862
:103AD00001EBE07105984144401A401E0590E00357
:103AE00006D45B462146179A059800F060F8054415
:103AF0001498007818B15A46179990476D1CE00346
:103B000024D55B462146179A059800F050F80544E5
:103B10001CE00498002807DBDDE90301884203DD8F
:103B20000098405C179901E0179930205A46904759
:103B3000049805F10105401C04900198401E019075
:103B400004D12E205A46179990476D1CBAF10001F6
:103B5000AAF1010ADDDC05E017F8010B5A461799B6
:103B600090476D1CB8F10001A8F10108F4DC5B4638
:103B70002146179A0598ABE62D0000002B000000A7
:103B80002000000030BCBDE8C08F2DE9F0410446A4
:103B900000251E461746880404D405E03946202037
:103BA000B0476D1C641EF9D52846BDE8F0812DE9AB
:103BB000F041044600251E469046C80301D5302733
:103BC00000E02027880404D505E041463846B04788
:103BD0006D1C641EF9D52846BDE8F081F0B50C4691
:103BE000074601468FB034A0FEF7E0FBC4EB441655
:103BF000394C002204EBC6010D46384601F0E0FEC8
:103C000010F0FF0F06D035A100F0BCF94FF0FF30E7
:103C10000FB0F0BD36A0FEF7C9FB30223B49684625
:103C2000FCF711FB54F836000DAA0CA901F05AFF5D
:103C300018B90C98411C12D00A9054F83600694605
:103C400001F0A0FF0027B0B1291D54F8360001F0A3
:103C50005CFF00B3281D00F06FFE0020D8E72C4861
:103C60000A900C90B5F84800B5F846104843E96C46
:103C700048430D90E1E754F8360001F01FFF25A1FD
:103C800000F080F954F8360001F0D6FE44F83670A2
:103C90006FF00300BCE754F8360001F00FFF22A1DB
:103CA00000F070F954F8360001F0C6FE44F83670A2
:103CB0006FF00100ACE700004372656174696E67E4
:103CC00020746865206E6574776F726B202225738F
:103CD000222E2E0D0A000000701C002061695F6D0D
:103CE0006E6574776F726B5F6372656174650000F7
:103CF000496E697469616C697A696E672074686578
:103D0000206E6574776F726B0D0A00000C2A030831
:103D1000601E002061695F6D6E6574776F726B5F06
:103D2000696E69740000000061695F6D6E6574778B
:103D30006F726B5F6765745F696E666F000000008D
:103D4000C1880289C0685143484370472DE9F0415A
:103D500006004FF0000424D0327816481AB300252C
:103D60004FEA0008C5EB451108EBC104206888B193
:103D70006068FCF78CFA07463046FCF788FA874201
:103D800008D16068FCF783FA024631466068FCF7A8
:103D900092FA18B100246D1C022DE3DB2046BDE829
:103DA000F0810020FBE70229F8D2C1EB411100EBC2
:103DB000C104F3E7701C0020FEB501200421CDE909
:103DC00000100024024601464FF0FF3523460294BE
:103DD00013A0FEF7EBFA1F49002000BFC0EB401212
:103DE000401C41F8324001EBC20202289467A2F85D
:103DF0007C40F3DB00263146002001F043FE040046
:103E000009D0014614A0FEF7D1FA31462046FFF74B
:103E1000E5FE050002D1761C002CECD12846FEBD43
:103E20000D0A414920706C6174666F726D202841E3
:103E300050492025642E25642E2564202D205255BE
:103E40004E54494D452025642E25642E2564290DA8
:103E50000A000000701C00200D0A466F756E642079
:103E60006E6574776F726B20222573220D0A000035
:103E700030B591B00025C0F8D0500446C0F8D450F9
:103E8000684601F065FC8DF8015019488DF8025024
:103E9000CDE9015003952068691E30B304AA10A92A
:103EA00001F041FE694604F17800039401F01EFC24
:103EB000C0B11098C4F89800302204A904F19C0005
:103EC000FCF7C1F974B1204600F04EF8C4F8D050A8
:103ED000C4F8D450A06F28B104F1980101F0CCFBD4
:103EE000A4F87C00002011B030BD0846FBE70000BC
:103EF000E53F0008F0B516462DED028B81B0B0EE1F
:103F0000408A1C460D4607461A0021D0906F30B1FA
:103F1000B2F87C1019B1803201F03BFCC0B1152021
:103F2000E88054F8800FA86085ED068AE068686133
:103F30006068E860A068286132462946384600F08B
:103F400075FB01B0BDEC028BBDE8F04000F0B8BBE2
:103F50000A200346009004222946384600F0A4FABD
:103F600001B0BDEC028BF0BD10B5040009D0A06F0C
:103F700020B1B4F87C1009B101F020FC0020A4F8B5
:103F80007C0010BD020A29B1C0B21346024603A04C
:103F9000FEF70CBAC1B20BA0FEF708BA453A2041B1
:103FA00049206572726F722028257329202D207494
:103FB0007970653D256420636F64653D25640D0A55
:103FC00000000000453A204149206572726F72205E
:103FD0002D20747970653D256420636F64653D25EF
:103FE000640D0A002DE9FC410F4604460026C2B1CB
:103FF000012A3CD102F0BCFB054602F0D3FBD4E918
:104000003C10783449197041C4E91E1054F85C0F13
:10401000401C44F8640954F87019884211D10220F8
:1040200010E054F8D00F401C206002F0A1FBD4E94E
:10403000061240185641C4E90606BDE8FC4102F0EC
:10404000B1BB0120060494F8E00008B146F0004638
:104050002846002102F070FB79697888CDE90001DB
:104060003B88D4E936013343022200F027FABDE849
:10407000FC81002807D0C288C1685143028980882A
:10408000424301FB02F070472DE9FC4114680646EB
:104090000020216965680A68E060402A03D0206832
:1040A0000368934202D00025022011E00B69C76823
:1040B000BB420BD1C7888B68BB4207D10789CB684D
:1040C000BB4203D149688088814202D00025052087
:1040D000E060C2F3C610001D4FEAD00820680769EF
:1040E00013E042466946304604F022FC002818D00E
:1040F000002D07DD2FB1424669463846FCF7A3F88C
:1041000047446D1EA068401CA060B0680028E8D13C
:10411000E06828B9D4E90101814201D00120E060C2
:104120000120BDE8FC812DE9F04116680B46804670
:104130007568B5B13068A0B101880769C1F3C611CF
:10414000091DCC081946404604F076FA002809D02B
:1041500004FB05F23946404604F0EEF9002801D090
:10416000B5600120BDE8F08138B50D460446816890
:104170000C30FFF7EBFD40B1031D01B0294620468E
:10418000BDE83040002200F0DBB9042003460246BF
:1041900000902946204600F087F938BD2DE9F74FF9
:1041A000804600279AB0791E0C30FFF7CFFD04003F
:1041B00017D0002084F8E000D8F80800C10700D02C
:1041C000012780074FF0010902D5012784F8E0900C
:1041D0000020C4E93A00C4E93C0005460DF1440B57
:1041E00020E004200346009077E000BFA06B05EBC1
:1041F000450600EBC6010BEBC60082461822FCF711
:1042000022F8AAF804901020A16B00EBC600085811
:1042100010B1CAF8100004E0544850F82510CAF84C
:1042200010106D1CA08EA842E0DC03A8CA46002531
:10423000814612E005EB4500E16B09EBC00601EB9E
:10424000C00118223046FBF7FEFF4848A6F804A03C
:10425000001D50F825006D1C3061E08EA842E9DC9D
:1042600011A8FFF706FF03460026012200964046EC
:104270001B9900F019F900250FE00122691C884202
:1042800000D1022205EB45010BEBC10340461B990F
:1042900000F0CAF8002825D06D1CA08EA842ECDCE6
:1042A00002F046FA10901B980CB1C4E9368017B1A1
:1042B0002046FFF7DDFD02F075FA03AA11A9206878
:1042C00001F0A7FC012810D0206801F0F7FB28A11D
:1042D000FFF758FE0A2003460090042240461B992F
:1042E00000F0E2F81DB000F04BB802F041FAD4F84B
:1042F000E820D4F8F010B24651180E184FB13046ED
:10430000002102F019FA2346022240461B99FFF7CA
:10431000F1FD0025CB4617E0691C4FF002098842E9
:1043200001D14FF003093046002102F005FA05EBF8
:1043300045010BEBC100CDE900A000234A464046F1
:104340001B9900F0BBF86D1CE08EA842E4DC47B17D
:104350002046FFF709FEA06F08B101F003FAC4F888
:1043600078A0109804F0AEFDBCE700008016002095
:1043700061695F6D6E6574776F726B5F72756E00E9
:1043800030BCBDE8C08F0A23CB8040F201238B6094
:104390000223CB6012B142F00202CA60002200F098
:1043A00045B970B505460B200C46C880FCF75AFC91
:1043B000A060FCF7BFFFE060FCF792FF206103F014
:1043C0008BF8606121462846BDE87040002200F06D
:1043D0002DB9000030B585B004460021684604F0D0
:1043E00047FA9DE82E000F4880E82E00002168461D
:1043F00004F08AFA0B48142269461030FBF723FFB9
:1044000008490020002C8862486209D0204603E059
:104410008A6A521C0C308A624268002AF8D14C62C7
:1044200005B030BDFC1B00202DE9F04190B0002408
:10443000804616460F4601250394184604940193BE
:10444000FFF717FE029006A8059014480D9001A8EA
:104450000E9006AA1249134803F0F3FC03F086F805
:10446000049848B1C0B20090042239464046049BEB
:1044700000F01AF800250CE0009432463946404618
:10448000039B00F011F8012E01D0022E01D100F0A3
:1044900017F910B02846BDE8F081000089400008F7
:1044A000132D0308FC1B002030B40C25029CCD808A
:1044B0008B600C7330BC00F0B9B800002DE9F047F8
:1044C00086B00026DDE90E9582466F6990460C465F
:1044D0000296284603960095FFF7CBFD04960190BF
:1044E000002B00DA01960E21E18023F00040C4E9A0
:1044F000020984ED040A28686061A888A061E88840
:10450000E06128892062E868606204F114020021F9
:10451000384600F09DF809482063C4F834D042467C
:104520002146504600F082F8B8F1020F03D0012076
:1045300006B0BDE8F08700F0C3F8F9E727410008AE
:104540002DE9F04107461420C88016460C461D464A
:1045500040220831186800F001F9402204F14801B6
:10456000686800F0FBF8402204F18801A86800F0B8
:10457000F5F8402204F1C801E86800F0EFF84022A5
:1045800004F58471286900F0E9F8402204F5A67169
:10459000A86900F0E3F8288EC4F8A001688EC4F87A
:1045A000A401E86EC4F8A801E86AC4F89C01286F69
:1045B000C4F8F40105F1240004F5A47400F0F2F845
:1045C000E06405F1280000F0EDF8206505F1140025
:1045D00000F0E8F8206005F11C0000F0E3F86064EA
:1045E00005F1200000F0DEF844F8480F04F12C013A
:1045F00005F13C00A4F5C87402F074FF04F5EC71F9
:1046000005F1540002F06EFF0648C4E96B05064848
:10461000C4E96D05324621463846BDE8F04100F058
:1046200005B80000097900081979000810B500687C
:1046300008600A710A460449044803F00FFFBDE808
:10464000104002F09FBF00005D2E03080C1C0020EC
:1046500010B59FED1A0A002382ED050A9361002828
:104660002AD00378DB0727D04368002B24D05C686E
:104670003CB15B888B4204DD236803EB810393ED3F
:10468000000A82ED050A0378DB0713D0406888B181
:1046900003789B07436806D563B14088884209DDEB
:1046A0005868405C07E02BB14088884202DD5868BA
:1046B000405600E00020906110BD000000000000A6
:1046C0001CB50020009001906A460449044803F09C
:1046D000B8FB044602F04AFF20461CBDB82D030873
:1046E000FC1B0020F8B502F041FF194A194902F5F8
:1046F000127003F0A6FB30B302F038FF164D1448D9
:104700000024D5E9091203790FE000BF04EB44004F
:1047100001EB800006789E4206D1D0E901320C49B7
:104720000B485031984702E0641CA242EED8A86AB8
:10473000A04208D1042006490346024600905031A9
:104740000348FFF7B1FE02F011FF0020F8BD0000A2
:10475000B4190020AC2A0308FC1B0020FEB5144647
:104760000DA20D46064607CA8DE807003046FBF746
:104770008EFDA04200D9601E002D0CD01EB110B1DC
:10478000421C314604E06846FBF781FD421C694645
:104790002846FBF758FDFEBD554E444546494E455B
:1047A00044000000002805D00168C07809BA21F053
:1047B000FF0108437047000038B514461268C2F381
:1047C00043450A4601463CA0FDF7F0FD022D1CD0F2
:1047D000012D64D03AA0FDF7E9FDE1680091208940
:1047E0002588E2880346C5F3C6155043694348430C
:1047F000001DC10834A0FDF7D9FD2169002955D05D
:10480000BDE8384038A0FDF7D1BD2068C0F3C6121E
:10481000C015C00701D038A100E038A138A0FDF7CD
:10482000C5FD606960B30178C90729D0406838B315
:10483000416829B142881AB10A6892ED000A01E084
:104840009FED310A0278920705D559B1408848B1E9
:104850004868057807E029B1408818B1486890F9A0
:10486000005000E0002510EE100AFBF741FD41EC7E
:10487000100B26A053EC102B0095FDF797FDACE72D
:10488000206800F07F02C0F3C0511144C0F3C6108D
:10489000411A23A04031403AFDF788FD9DE720886A
:1048A000C0F3C61120A0FDF781FD96E7BDE83840B2
:1048B00020A0FDF77BBD000025735B25645D200013
:1048C0004E4F4E450000000020256C642062797434
:1048D00065732C2073686170653D2825642C256400
:1048E0002C256C64290000002028403078253038C1
:1048F00078290D0A00000000730000007500000018
:1049000020257325642C00000000000020736361E3
:104910006C653D25662C207A65726F3D25642C0000
:104920005125642E25642C0020666C6F617425640B
:104930002C0000000D0A000038B5044631A0FDF738
:1049400035FD37A02168FDF731FD3CA06168FDF71A
:104950002DFD41A0A168FDF729FD46A0E168FDF706
:1049600025FDA07D0090637D227D49A02169FDF792
:104970001DFDA07F0090637F227F4FA0A169FDF7FE
:1049800015FD57A0FDF712FD5AA0E16EFDF70EFDD3
:104990005FA0E16AFDF70AFD04F13C00FFF7D0F9E2
:1049A000014664A0FDF702FD04F15400FFF7C8F9C9
:1049B000014669A0FDF7FAFC628E218E6FA0FDF71B
:1049C000F5FC00250AE000BF606B05EB450100EB3C
:1049D000C102294671A0FFF7EFFE6D1C208EA84290
:1049E000F2DC00250AE000BFA06B05EB450100EBFF
:1049F000C10229466BA0FFF7DFFE6D1C608EA84246
:104A0000F2DC38BD4E6574776F726B20636F6E6633
:104A1000696775726174696F6E2E2E2E0D0A000023
:104A2000204D6F64656C206E616D65202020202014
:104A3000202020203A2025730D0A0000204D6F64AD
:104A4000656C207369676E61747572652020202023
:104A50003A2025730D0A0000204D6F64656C2064B8
:104A600061746574696D6520202020203A202573CB
:104A70000D0A000020436F6D70696C6520646174DD
:104A80006574696D652020203A2025730D0A0000A9
:104A90002052756E74696D65207265766973696FF1
:104AA0006E2020203A202573202825642E25642E90
:104AB0002564290D0A00000020546F6F6C20726578
:104AC000766973696F6E2020202020203A2025739C
:104AD000202825642E25642E2564290D0A00000057
:104AE0004E6574776F726B20696E666F2E2E2E0D79
:104AF0000A00000020206E6F6465732020202020B3
:104B000020202020202020203A20256C640D0A003F
:104B10002020636F6D706C65786974792020202087
:104B2000202020203A20256C64204D4143430D0A6B
:104B300000000000202061637469766174696F6E03
:104B400020202020202020203A20256C642062791B
:104B50007465730D0A0000002020706172616D732E
:104B60002020202020202020202020203A20256CDA
:104B7000642062797465730D0A0000002020696E5C
:104B8000707574732F6F7574707574732020202086
:104B90003A2025752F25750D0A0000002020204998
:104BA000000000002020204F0000000070B50646E5
:104BB00014460D4608A0FDF7F9FB23462A46314668
:104BC00007A0FDF7F3FB0AA0FDF7F0FBBDE870407E
:104BD000084909A0FDF7EABB0D0A230D0A000000F1
:104BE000232025732025642E25640D0A0000000073
:104BF000230D0A008E384D00436F6D70696C65643B
:104C00002077697468204D444B2D41524D204B65EF
:104C1000696C2025640D0A0010B50848FFF7DAFB1F
:104C20000222032106A0FFF7C1FF01F0A7FD01F05A
:104C3000ABFB02F0CDFC002010BD00008C16002064
:104C400041492056616C69646174696F6E000000AF
:104C500010B5FFF7B1F8040009D0014615A0FDF723
:104C6000A5FB4FF4FA60FBF7B7FE204610BD17A076
:104C7000FDF79CFB16A0FDF799FB21A0FDF796FB25
:104C800013A0FDF793FB11A0FDF790FB2848FDF75B
:104C90008DFB28A0FDF78AFB0122022132A0FDF73F
:104CA00085FB02F05DFC00BFFFF71CFD0028FBD078
:104CB00010BD00000D0A453A20206169496E6974F3
:104CC000282920723D25640D0A0000000D0A00000D
:104CD0002D2D2D2D2D2D2D2D2D2D2D2D2D2D2D2D04
:104CE0002D2D2D2D2D2D2D2D2D2D2D2D2D2D2D2DF4
:104CF0002D2D2D2D2D2D2D2D2D2D2D0D0A000000AE
:104D00007C20524541445920746F20726563656967
:104D10007665206120434D442066726F6D20746873
:104D20006520484F53542E2E2E207C0D0A00000083
:104D3000843003082320616E6420612073746D3316
:104D400032636F6D2D6261736520696E7465726682
:104D50006163652073686F756C642062652075738C
:104D600065640D0A00000000232028692E652E20AE
:104D7000507974686F6E2073746D3332636F6D2079
:104D80006D6F64756C65292E2050726F746F636F40
:104D90006C2076657273696F6E203D2025642E2528
:104DA000640D0A0099B1C0F3C612C0F382331344F4
:104DB00003FB01F2D21D22F00701C0F34152D140A2
:104DC000C0F34340042804D0082807D104E00020A1
:104DD000704701EB031101E001EB0321C91DC80875
:104DE0007047000030B54021C0F34342022A18D07A
:104DF0002E4A20F07E44A31A0D01944247D024DCB1
:104E00002B4AA4EB0203944241D017DC402C42D041
:104E1000403CB4F5802438D0AC423CD12449C91F71
:104E200039E0C0F3C051C905C0F3C61241EAC2114E
:104E300000F07F02114341F480212CE0A3F5407380
:104E4000F93B16D00F2B26D123E0B3F5006F14D019
:104E500006DCAB420FD0A3F58063073B1BD10EE00D
:104E6000A3F500630F3B0DD0124AD34213D1124970
:104E700011E012490FE012490DE012490BE0104910
:104E8000C91D08E00F490F3105E00F4903E0114645
:104E900001E00A490F3100F080420A4300F000515E
:104EA000114300F00060084330BD00004000840062
:104EB000470404000FF801FF40108201400804007D
:104EC00040048400400884004000040008B509A1A3
:104ED0000968009148B101789DF80020914204D101
:104EE00004226946FBF7DAF908B1002008BD012069
:104EF00008BD0000038404842DE9FF4F83B0DDE981
:104F00001141B1FBF4FADDE91370DDE91895DDE933
:104F10001668791B61430291DDF840E0DDF854C06A
:104F2000411B0191ACEB0801414306FB009000914D
:104F300003EB8001049B9E4502D19FED361A01E0F0
:104F4000B7EE001A7E43664302EB86024FF000097B
:104F500002EB840B58E0002753E000BF0EEB890002
:104F6000002690ED000A104620EE010A3CE00023E6
:104F700025F0030C22E000BFD1ED002A90ED003AAD
:104F800000EB840091ED012A02EE830AD0ED002AA5
:104F900000EB8400D1ED021AD1ED030A103102EECC
:104FA000220A90ED002A00EB84001B1D01EE820A0C
:104FB000D0ED001A00EB840000EEA10A9C45DBDC7A
:104FC00009E000BFF1EC010AD0ED001A00EB84000B
:104FD0005B1C00EEA10AAB42F4DB029B761C00EBEB
:104FE0008300019B01EB83014645C0DB00987F1CD9
:104FF00001EB8001049800EB890009F1010980EDC3
:10500000000A5745AAD3121D9345A4D807B000F053
:1050100003B800000000000030BCBDE8C08F2DE9DF
:10502000FF4F8DB01AACDDE9255294E88140DDE9EF
:105030002363DDE91F8ADDE9219CDDF874B000B946
:1050400008469C1B531B1E9ABCF1010F02FB08F281
:1050500001D1012A1CD0BC4501D1012A28D0CDE9BB
:105060000B53CDE906A9CDF820C0CDF81480CDE9C9
:1050700009641E9BCDE90007CDF808E0CDE903B334
:10508000DDE90F230D9800F027F811B000F020B8EB
:10509000CDE90664CDE90853CDE90007CDE904A9BF
:1050A000CDE902EBDDE90F230D9800F0CBF8ECE73A
:1050B000CDE90664CDE90853CDE90007CDE904A99F
:1050C000CDE902EBDDE90F230D98FFF715FFDCE7D3
:1050D00030BCBDE8C08F00002DE9FF4F86B017AC93
:1050E000DDE91EC794E845009CFBF0F400FB14C406
:1050F000041B94FBF0F5DDE91C9100FB154E99FBB8
:10510000F2F502FB1594141B94FBF2F502FB154516
:105110000CEB0004641E94FBF0FC09EB0204641E1B
:1051200094FBF2F8A7EB0E04DDE9143B491B114494
:10513000491E91FBF2F7DDF86CA00444641E94FB59
:10514000F0F4CDE9008CDDF858C0B3FBFAF102FBB6
:105150000CF200FB142258435A43401ACDE90402D2
:10516000301B48431A9A039001FB06F0D21B5043B0
:10517000DDE9008C029008FB06C0BBFBFAFB099A34
:10518000484302EB8002079E1398B04202D1DFED44
:105190002A0A01E0F7EE000A169809EB050606FB5D
:1051A00000E05843089B4FF0000803EB800E404698
:1051B0003BE0002633E01398002500EB880090EDDB
:1051C000000A704620EE200A1CE0002311E000BF18
:1051D00000EB810C06E000BFB2EC011AF0EC011A02
:1051E00001EE210A6045F7D3DDF810C05B1C00EB2F
:1051F0008C00A342ECDB059B6D1C00EB8300039B42
:1052000002EB8302BD42E0DB0298761C02EB8002D7
:10521000079800EB880008F1010880ED000A5E4560
:10522000C9D30EEB810E09F1010081465045C0D370
:105230000AB000F003B800000000000030BCBDE878
:10524000C08F00002DE9FF4F81B08A46DDE9116172
:10525000DDE90E82DDE91447179DDDF84CC0701BB7
:1052600050430090481B00FB02FE02FB01F0ACEB38
:10527000070C00FB0CFB1698DDF8409004FB0100C6
:10528000504303EB800102FB05F0D04502D1DFED76
:105290002B0A01E0F7EE000A74435443039A02EB31
:1052A0008406002444E000BF08EB8402002592ED50
:1052B000000A324620EE200A31E0002320F0030CE1
:1052C0001BE000BF92ED004AD1ED004AD2ED012A69
:1052D000D1ED013A04EE840A92ED022A91ED023AF0
:1052E000D2ED031A91ED031A103103EEA20A103227
:1052F0001B1D03EE020A01EE210A9C45E2DC06E0DA
:10530000F1EC011A5B1CB2EC011A01EE810A834236
:10531000F6DB009B01EB8E0102EB83026D1CBD42AC
:10532000CBDB0AEB840201EB8B0182ED000A641CEB
:105330004C45B9D305B000F003B8000000000000F0
:1053400030BCBDE8C08F2DE9FF4F8DB00F46DDE9C1
:105350001C960025DDF89CB0DDF878A0DDF86C80A7
:10536000259C31E06042002800DC0020311B5A46B9
:10537000594500D31146269A231802FB06320F9B8B
:1053800002FB08F203EB8202DDE9233CCDE90B01CD
:10539000CDE9093CDDE91F130DF1140E2998DDF864
:1053A00088C08EE80B1028983946CDE90360CDE916
:1053B00001891A980090109B0D98FFF730FE2198F4
:1053C00007EB890704446D1C5545CBD311B000F0A1
:1053D00000B830BCBDE8C08FF0B5059D25F00104D4
:1053E00003EB84069FED460AEF085AE051F8044BA0
:1053F000D3ED002A04F0FF0C4FEA1C1E02EB8E0EC8
:105400000CF00F0C9EED002A02EB8C0C02EE220A2F
:10541000DCED001A93ED012AC4F3072C4FEA1C1EA1
:1054200002EB8E0E01EE820A9EED001AD3ED021AF7
:105430000CF00F0C02EB8C0CD3ED042A01EE210AC8
:10544000DCED000A93ED031AC4F3074C4FEA1C1E6F
:1054500002EB8E0E00EE810A9EED002A0CF00F0C7E
:1054600002EB8C0C240EDCED001A02EE220A93ED06
:10547000052A4FEA141C02EB8C0C04F00F049CED7F
:10548000001A01EE820AD3ED061A02EB8404D4ED71
:10549000000A01EE210A93ED071A20337F1E00EE69
:1054A000810A002FA2D115E011F8014B93ED001AEB
:1054B000270902EB870704F00F04D7ED000A02EB7F
:1054C000840400EE810AD4ED000A93ED011A08333A
:1054D00000EE810AB342E7D3EC0709D0097893EDD7
:1054E000001A090902EB8101D1ED000A00EE810AE0
:1054F000D0ED000A30EE800A80ED000AF0BD000019
:1055000000000000F0B59FED380A059DEE0851E05F
:1055100051F8044BD3ED002AE7B202EB8707D7ED31
:10552000001AC4F3072702EB870701EEA20A97EDE2
:10553000002AD3ED011AC4F3074702EB8707240EB4
:1055400002EE210A97ED001AD3ED021A02EB840451
:10555000D3ED042AD4ED000A01EE210A93ED031ADB
:1055600051F8044BE7B202EB870700EE810A97ED92
:10557000002AC4F3072702EB8707D7ED001A02EED3
:10558000220A93ED052AC4F3074702EB8707240E8E
:1055900097ED001A01EE820AD3ED061A02EB84049D
:1055A000D4ED000A01EE210A93ED071A2033761E8E
:1055B00000EE810A002EABD105F007040BE000BF1E
:1055C00011F8015B641E02EB8505B3EC011AD5ED01
:1055D000000A00EE810A002CF2D1D0ED000A30EE74
:1055E000800A80ED000AF0BD00000000F0B5042B39
:1055F000DDE9055400EB840427D0082B27D12FE0E8
:1056000000236E0812E00F783F0902EB870797ED41
:10561000000A80ED000A11F8017B07F00F0702EB8A
:10562000870797ED000A80ED010A08301F465B1CD2
:10563000B742E8D3EB0708D011F8013B1B0902EB96
:10564000830393ED000AA0EC010AA042D8D3F0BD79
:1056500011F8013B02EB830393ED000AA0EC010A71
:10566000A042F5D3F0BD10B5016904468847E06853
:10567000A04200D1002010BD70B50C4600F0D4FB54
:10568000050024D01CB3206808B32646442000F04F
:10569000A5FD041E1AD0288C2087288C3822401C97
:1056A000288431462046FAF7CEFD04F13C00E06341
:1056B000206405F11801AA69C0E900215060A861C1
:1056C0001039206800F002FB18B1208F70BD002057
:1056D00070BDD4E90F014160D4E90F010860204694
:1056E00000F087FD288C401E2884F0E770B58AB052
:1056F0000D46060018D0154C24216846FAF7BCFD6B
:10570000242269462046FAF79EFD0120A0722084DB
:1057100004F11800A061E0614DB195E80F0004F1BB
:10572000080C8CE80F000BE000200AB070BD684642
:1057300000F00EF89DE80F0004F1080585E80F0061
:10574000204600F07FFB30600120EEE774950020DA
:10575000002101230A4663F30702C0E900218160AA
:10576000C160704770B500F05FFB050003D0A96908
:1057700051F83C4907E0002070BD01222846FDF7A2
:10578000DAFC2146E46B481B3C3C2430F5D1012077
:1057900070BD70B514460D4600F046FB60B15CB1BB
:1057A00029461830FDF7B9FC002806D000682146CC
:1057B000BDE8704000F076BA002070BD70B50D46AF
:1057C00000F032FB04000DD065B1294604F1180049
:1057D000FDF7A3FC011E06D02046BDE87040002264
:1057E000FDF7A9BC002070BDA0F51C5011381C2885
:1057F00011D2DFE800F00E0E100E0E0E0E0E0E0E81
:105800000E0E0E0E0E0E0E100E0E0E0E0E0E0E0EB6
:105810000E0E0120704700207047000000B50246C0
:10582000FFF7E2FF002848D0A2F51C52113A1C2ACB
:1058300043D2DFE802F00E1042121416181A1C1E92
:1058400020222426282A2C422E30323436383A3C64
:105850003E401BA000BD1BA000BD1BA000BD1CA0A6
:1058600000BD1DA000BD1DA000BD1DA000BD1EA04F
:1058700000BD1EA000BD1FA000BD23A000BD25A02F
:1058800000BD26A000BD26A000BD27A000BD29A008
:1058900000BD2DA000BD2EA000BD2FA000BD31A0D9
:1058A00000BD32A000BD33A000BD38A000BD38A0AF
:1058B00000BD39A000BD3AA000BD0AA000BD000097
:1058C00041444400424E0000434F4E5632440000D3
:1058D00044454E5345000000475255004C524E007F
:1058E0004C53544D000000004E4C00004E4F524DA2
:1058F000000000004F5054494D495A45445F434F02
:105900004E563244000000005452414E53504F5303
:1059100045000000504F4F4C00000000534D000068
:1059200053504C495400000054494D455F44454C88
:105930004159000054494D455F444953545249422E
:105940005554454400000000434F4E43415400006D
:1059500047454D4D00000000555053414D504C45BA
:1059600000000000454C54574953450047454E45FB
:1059700052494300494E5354414E43454E4F524DB8
:10598000414C495A4154494F4E0000005041440097
:10599000534C49434500000054494C450000000069
:1059A000524544554345000010B50446006D00289B
:1059B00005D06065FFF757FE60650028FAD110BD7D
:1059C0002DE9F047824691460D46002000F0C0F8D0
:1059D00006001FD0DFF85C80002700BF07EB4701FF
:1059E00008EB41142146504600F0F9F8A0B1B4B1DB
:1059F000B9F100001AD0226C014628469047010AEE
:105A000006D110F0FF0F03D13460296871602E6059
:105A1000BDE8F087312003E07F1C022FDEDB14207D
:105A200060F30705E8B200F58050F1E7226C616B86
:105A3000E3E700002829030870B5054600F088F860
:105A400004001AD0D4E90010896C8847616881424B
:105A500013D000200A4900E05CB1C0EBC00201EBAA
:105A6000C202A24205D1C0EBC000002241F83020A2
:105A700002E0401C0228EFDB0025284670BD000034
:105A8000441900202DE9F0410B4F0E4680460024BA
:105A900004EB440007EB40152946404600F09FF810
:105AA00008B9761E02D22868BDE8F081641C022C79
:105AB000EEDB0020F8E700002829030810B50146B6
:105AC000142262F30700C4B2084604F5805400F0C3
:105AD0003FF828B103C8426CBDE8104008461047A3
